{
  "_format": "hh-sol-artifact-1",
  "contractName": "TeslaSwap",
  "sourceName": "contracts/TeslaSwap.sol",
  "abi": [
    {
      "inputs": [
        {
          "internalType": "address",
          "name": "_USDC",
          "type": "address"
        },
        {
          "internalType": "address",
          "name": "_sUSDC",
          "type": "address"
        },
        {
          "internalType": "address",
          "name": "_sTSLA",
          "type": "address"
        },
        {
          "internalType": "address",
          "name": "_curve",
          "type": "address"
        },
        {
          "internalType": "address",
          "name": "_synthetix",
          "type": "address"
        },
        {
          "internalType": "address",
          "name": "_balancer",
          "type": "address"
        }
      ],
      "stateMutability": "nonpayable",
      "type": "constructor"
    },
    {
      "inputs": [],
      "name": "USDC",
      "outputs": [
        {
          "internalType": "contract IERC20",
          "name": "",
          "type": "address"
        }
      ],
      "stateMutability": "view",
      "type": "function"
    },
    {
      "inputs": [],
      "name": "balancer",
      "outputs": [
        {
          "internalType": "contract IBPool",
          "name": "",
          "type": "address"
        }
      ],
      "stateMutability": "view",
      "type": "function"
    },
    {
      "inputs": [],
      "name": "curve",
      "outputs": [
        {
          "internalType": "contract ICurve",
          "name": "",
          "type": "address"
        }
      ],
      "stateMutability": "view",
      "type": "function"
    },
    {
      "inputs": [],
      "name": "sTSLA",
      "outputs": [
        {
          "internalType": "contract IERC20",
          "name": "",
          "type": "address"
        }
      ],
      "stateMutability": "view",
      "type": "function"
    },
    {
      "inputs": [],
      "name": "sUSD",
      "outputs": [
        {
          "internalType": "contract IERC20",
          "name": "",
          "type": "address"
        }
      ],
      "stateMutability": "view",
      "type": "function"
    },
    {
      "inputs": [
        {
          "internalType": "uint256",
          "name": "amountIn",
          "type": "uint256"
        },
        {
          "internalType": "uint256",
          "name": "amountOutMin",
          "type": "uint256"
        }
      ],
      "name": "swapUSDCForTequila",
      "outputs": [],
      "stateMutability": "nonpayable",
      "type": "function"
    },
    {
      "inputs": [],
      "name": "synthetix",
      "outputs": [
        {
          "internalType": "contract ISynthetix",
          "name": "",
          "type": "address"
        }
      ],
      "stateMutability": "view",
      "type": "function"
    }
  ],
  "bytecode": "0x60806040523480156200001157600080fd5b5060405162000e9738038062000e978339818101604052810190620000379190620002ec565b85600360006101000a81548173ffffffffffffffffffffffffffffffffffffffff021916908373ffffffffffffffffffffffffffffffffffffffff16021790555084600460006101000a81548173ffffffffffffffffffffffffffffffffffffffff021916908373ffffffffffffffffffffffffffffffffffffffff16021790555083600560006101000a81548173ffffffffffffffffffffffffffffffffffffffff021916908373ffffffffffffffffffffffffffffffffffffffff160217905550826000806101000a81548173ffffffffffffffffffffffffffffffffffffffff021916908373ffffffffffffffffffffffffffffffffffffffff16021790555081600160006101000a81548173ffffffffffffffffffffffffffffffffffffffff021916908373ffffffffffffffffffffffffffffffffffffffff16021790555080600260006101000a81548173ffffffffffffffffffffffffffffffffffffffff021916908373ffffffffffffffffffffffffffffffffffffffff160217905550600360009054906101000a900473ffffffffffffffffffffffffffffffffffffffff1673ffffffffffffffffffffffffffffffffffffffff1663095ea7b360008054906101000a900473ffffffffffffffffffffffffffffffffffffffff167fffffffffffffffffffffffffffffffffffffffffffffffffffffffffffffffff6040518363ffffffff1660e01b81526004016200025b929190620003d0565b602060405180830381600087803b1580156200027657600080fd5b505af11580156200028b573d6000803e3d6000fd5b505050506040513d601f19601f82011682018060405250810190620002b1919062000382565b505050505050506200048f565b600081519050620002cf816200045b565b92915050565b600081519050620002e68162000475565b92915050565b60008060008060008060c087890312156200030657600080fd5b60006200031689828a01620002be565b96505060206200032989828a01620002be565b95505060406200033c89828a01620002be565b94505060606200034f89828a01620002be565b93505060806200036289828a01620002be565b92505060a06200037589828a01620002be565b9150509295509295509295565b6000602082840312156200039557600080fd5b6000620003a584828501620002d5565b91505092915050565b620003b981620003fd565b82525050565b620003ca8162000447565b82525050565b6000604082019050620003e76000830185620003ae565b620003f66020830184620003bf565b9392505050565b60006200040a826200041d565b9050919050565b60008115159050919050565b600073ffffffffffffffffffffffffffffffffffffffff82169050919050565b6000819050919050565b600062000454826200043d565b9050919050565b6200046681620003fd565b81146200047257600080fd5b50565b620004808162000411565b81146200048c57600080fd5b50565b6109f8806200049f6000396000f3fe608060405234801561001057600080fd5b506004361061007d5760003560e01c80639324cac71161005b5780639324cac7146100dc578063db1e50ee146100fa578063e563037e14610116578063f8a4d531146101345761007d565b80637165485d14610082578063759b5225146100a057806389a30271146100be575b600080fd5b61008a610152565b60405161009791906107f5565b60405180910390f35b6100a8610176565b6040516100b5919061082b565b60405180910390f35b6100c661019c565b6040516100d39190610810565b60405180910390f35b6100e46101c2565b6040516100f19190610810565b60405180910390f35b610114600480360381019061010f919061061e565b6101e8565b005b61011e610541565b60405161012b91906107da565b60405180910390f35b61013c610567565b6040516101499190610810565b60405180910390f35b60008054906101000a900473ffffffffffffffffffffffffffffffffffffffff1681565b600160009054906101000a900473ffffffffffffffffffffffffffffffffffffffff1681565b600360009054906101000a900473ffffffffffffffffffffffffffffffffffffffff1681565b600460009054906101000a900473ffffffffffffffffffffffffffffffffffffffff1681565b600360009054906101000a900473ffffffffffffffffffffffffffffffffffffffff1673ffffffffffffffffffffffffffffffffffffffff166323b872dd3330856040518463ffffffff1660e01b815260040161024793929190610739565b602060405180830381600087803b15801561026157600080fd5b505af1158015610275573d6000803e3d6000fd5b505050506040513d601f19601f8201168201806040525081019061029991906105cc565b5060008054906101000a900473ffffffffffffffffffffffffffffffffffffffff1673ffffffffffffffffffffffffffffffffffffffff16633df021246001600385856040518563ffffffff1660e01b81526004016102fb9493929190610846565b600060405180830381600087803b15801561031557600080fd5b505af1158015610329573d6000803e3d6000fd5b505050506000600460009054906101000a900473ffffffffffffffffffffffffffffffffffffffff1673ffffffffffffffffffffffffffffffffffffffff166370a08231306040518263ffffffff1660e01b815260040161038a919061071e565b60206040518083038186803b1580156103a257600080fd5b505afa1580156103b6573d6000803e3d6000fd5b505050506040513d601f19601f820116820180604052508101906103da91906105f5565b9050600460009054906101000a900473ffffffffffffffffffffffffffffffffffffffff1673ffffffffffffffffffffffffffffffffffffffff1663a9059cbb33836040518363ffffffff1660e01b81526004016104399291906107b1565b602060405180830381600087803b15801561045357600080fd5b505af1158015610467573d6000803e3d6000fd5b505050506040513d601f19601f8201168201806040525081019061048b91906105cc565b50600160009054906101000a900473ffffffffffffffffffffffffffffffffffffffff1673ffffffffffffffffffffffffffffffffffffffff1663c836fa0a33836040518363ffffffff1660e01b81526004016104e9929190610770565b602060405180830381600087803b15801561050357600080fd5b505af1158015610517573d6000803e3d6000fd5b505050506040513d601f19601f8201168201806040525081019061053b91906105f5565b50505050565b600260009054906101000a900473ffffffffffffffffffffffffffffffffffffffff1681565b600560009054906101000a900473ffffffffffffffffffffffffffffffffffffffff1681565b60008151905061059c81610994565b92915050565b6000813590506105b1816109ab565b92915050565b6000815190506105c6816109ab565b92915050565b6000602082840312156105de57600080fd5b60006105ec8482850161058d565b91505092915050565b60006020828403121561060757600080fd5b6000610615848285016105b7565b91505092915050565b6000806040838503121561063157600080fd5b600061063f858286016105a2565b9250506020610650858286016105a2565b9150509250929050565b6106638161088b565b82525050565b610672816108e0565b82525050565b61068181610904565b82525050565b61069081610928565b82525050565b61069f8161094c565b82525050565b6106ae81610970565b82525050565b6106bd81610982565b82525050565b7f7355534400000000000000000000000000000000000000000000000000000000815250565b7f7354534c41000000000000000000000000000000000000000000000000000000815250565b610718816108d6565b82525050565b6000602082019050610733600083018461065a565b92915050565b600060608201905061074e600083018661065a565b61075b602083018561065a565b610768604083018461070f565b949350505050565b6000608082019050610785600083018561065a565b610791602083016106c3565b61079e604083018461070f565b6107aa606083016106e9565b9392505050565b60006040820190506107c6600083018561065a565b6107d3602083018461070f565b9392505050565b60006020820190506107ef6000830184610669565b92915050565b600060208201905061080a6000830184610678565b92915050565b60006020820190506108256000830184610687565b92915050565b60006020820190506108406000830184610696565b92915050565b600060808201905061085b60008301876106a5565b61086860208301866106b4565b610875604083018561070f565b610882606083018461070f565b95945050505050565b6000610896826108b6565b9050919050565b60008115159050919050565b600081600f0b9050919050565b600073ffffffffffffffffffffffffffffffffffffffff82169050919050565b6000819050919050565b60006108eb826108f2565b9050919050565b60006108fd826108b6565b9050919050565b600061090f82610916565b9050919050565b6000610921826108b6565b9050919050565b60006109338261093a565b9050919050565b6000610945826108b6565b9050919050565b60006109578261095e565b9050919050565b6000610969826108b6565b9050919050565b600061097b826108a9565b9050919050565b600061098d826108a9565b9050919050565b61099d8161089d565b81146109a857600080fd5b50565b6109b4816108d6565b81146109bf57600080fd5b5056fea2646970667358221220f994d2c2bccae1f5f48c02fa3f08ac69b5ab0a57eacd1ec4cc8770dabadb6c4a64736f6c63430008000033",
  "linkReferences": {},
  "deployedLinkReferences": {}
}