{
  "_format": "hh-sol-artifact-1",
  "contractName": "TeslaSwap",
  "sourceName": "contracts/TeslaSwap.sol",
  "abi": [
    {
      "inputs": [
        {
          "internalType": "address",
          "name": "_USDC",
          "type": "address"
        },
        {
          "internalType": "address",
          "name": "_sUSDC",
          "type": "address"
        },
        {
          "internalType": "address",
          "name": "_sTSLA",
          "type": "address"
        },
        {
          "internalType": "address",
          "name": "_curve",
          "type": "address"
        },
        {
          "internalType": "address",
          "name": "_synthetix",
          "type": "address"
        }
      ],
      "stateMutability": "nonpayable",
      "type": "constructor"
    },
    {
      "inputs": [],
      "name": "USDC",
      "outputs": [
        {
          "internalType": "contract IERC20",
          "name": "",
          "type": "address"
        }
      ],
      "stateMutability": "view",
      "type": "function"
    },
    {
      "inputs": [],
      "name": "curve",
      "outputs": [
        {
          "internalType": "contract ICurve",
          "name": "",
          "type": "address"
        }
      ],
      "stateMutability": "view",
      "type": "function"
    },
    {
      "inputs": [],
      "name": "sTSLA",
      "outputs": [
        {
          "internalType": "contract IERC20",
          "name": "",
          "type": "address"
        }
      ],
      "stateMutability": "view",
      "type": "function"
    },
    {
      "inputs": [],
      "name": "sUSD",
      "outputs": [
        {
          "internalType": "contract IERC20",
          "name": "",
          "type": "address"
        }
      ],
      "stateMutability": "view",
      "type": "function"
    },
    {
      "inputs": [
        {
          "internalType": "uint256",
          "name": "amountIn",
          "type": "uint256"
        },
        {
          "internalType": "uint256",
          "name": "amountOutMin",
          "type": "uint256"
        }
      ],
      "name": "swapTequilaForUSDC",
      "outputs": [],
      "stateMutability": "nonpayable",
      "type": "function"
    },
    {
      "inputs": [
        {
          "internalType": "uint256",
          "name": "amountIn",
          "type": "uint256"
        },
        {
          "internalType": "uint256",
          "name": "amountOutMin",
          "type": "uint256"
        }
      ],
      "name": "swapUSDCForTequila",
      "outputs": [],
      "stateMutability": "nonpayable",
      "type": "function"
    },
    {
      "inputs": [],
      "name": "synthetix",
      "outputs": [
        {
          "internalType": "contract ISynthetix",
          "name": "",
          "type": "address"
        }
      ],
      "stateMutability": "view",
      "type": "function"
    }
  ],
  "bytecode": "0x60806040523480156200001157600080fd5b5060405162000ec438038062000ec48339818101604052810190620000379190620002aa565b84600260006101000a81548173ffffffffffffffffffffffffffffffffffffffff021916908373ffffffffffffffffffffffffffffffffffffffff16021790555083600360006101000a81548173ffffffffffffffffffffffffffffffffffffffff021916908373ffffffffffffffffffffffffffffffffffffffff16021790555082600460006101000a81548173ffffffffffffffffffffffffffffffffffffffff021916908373ffffffffffffffffffffffffffffffffffffffff160217905550816000806101000a81548173ffffffffffffffffffffffffffffffffffffffff021916908373ffffffffffffffffffffffffffffffffffffffff16021790555080600160006101000a81548173ffffffffffffffffffffffffffffffffffffffff021916908373ffffffffffffffffffffffffffffffffffffffff160217905550600260009054906101000a900473ffffffffffffffffffffffffffffffffffffffff1673ffffffffffffffffffffffffffffffffffffffff1663095ea7b360008054906101000a900473ffffffffffffffffffffffffffffffffffffffff167fffffffffffffffffffffffffffffffffffffffffffffffffffffffffffffffff6040518363ffffffff1660e01b81526004016200021a9291906200037a565b602060405180830381600087803b1580156200023557600080fd5b505af11580156200024a573d6000803e3d6000fd5b505050506040513d601f19601f820116820180604052508101906200027091906200032c565b50505050505062000439565b6000815190506200028d8162000405565b92915050565b600081519050620002a4816200041f565b92915050565b600080600080600060a08688031215620002c357600080fd5b6000620002d3888289016200027c565b9550506020620002e6888289016200027c565b9450506040620002f9888289016200027c565b93505060606200030c888289016200027c565b92505060806200031f888289016200027c565b9150509295509295909350565b6000602082840312156200033f57600080fd5b60006200034f8482850162000293565b91505092915050565b6200036381620003a7565b82525050565b6200037481620003f1565b82525050565b600060408201905062000391600083018562000358565b620003a0602083018462000369565b9392505050565b6000620003b482620003c7565b9050919050565b60008115159050919050565b600073ffffffffffffffffffffffffffffffffffffffff82169050919050565b6000819050919050565b6000620003fe82620003e7565b9050919050565b6200041081620003a7565b81146200041c57600080fd5b50565b6200042a81620003bb565b81146200043657600080fd5b50565b610a7b80620004496000396000f3fe608060405234801561001057600080fd5b506004361061007d5760003560e01c806389a302711161005b57806389a30271146100da5780639324cac7146100f8578063db1e50ee14610116578063f8a4d531146101325761007d565b80634c6f2eaf146100825780637165485d1461009e578063759b5225146100bc575b600080fd5b61009c600480360381019061009791906106ae565b610150565b005b6100a6610208565b6040516100b3919061089c565b60405180910390f35b6100c461022c565b6040516100d191906108d2565b60405180910390f35b6100e2610252565b6040516100ef91906108b7565b60405180910390f35b610100610278565b60405161010d91906108b7565b60405180910390f35b610130600480360381019061012b91906106ae565b61029e565b005b61013a6105f7565b60405161014791906108b7565b60405180910390f35b6000600160009054906101000a900473ffffffffffffffffffffffffffffffffffffffff1673ffffffffffffffffffffffffffffffffffffffff1663c836fa0a33856040518363ffffffff1660e01b81526004016101af929190610832565b602060405180830381600087803b1580156101c957600080fd5b505af11580156101dd573d6000803e3d6000fd5b505050506040513d601f19601f820116820180604052508101906102019190610685565b9050505050565b60008054906101000a900473ffffffffffffffffffffffffffffffffffffffff1681565b600160009054906101000a900473ffffffffffffffffffffffffffffffffffffffff1681565b600260009054906101000a900473ffffffffffffffffffffffffffffffffffffffff1681565b600360009054906101000a900473ffffffffffffffffffffffffffffffffffffffff1681565b600260009054906101000a900473ffffffffffffffffffffffffffffffffffffffff1673ffffffffffffffffffffffffffffffffffffffff166323b872dd3330856040518463ffffffff1660e01b81526004016102fd939291906107ba565b602060405180830381600087803b15801561031757600080fd5b505af115801561032b573d6000803e3d6000fd5b505050506040513d601f19601f8201168201806040525081019061034f919061065c565b5060008054906101000a900473ffffffffffffffffffffffffffffffffffffffff1673ffffffffffffffffffffffffffffffffffffffff16633df021246001600385856040518563ffffffff1660e01b81526004016103b194939291906108ed565b600060405180830381600087803b1580156103cb57600080fd5b505af11580156103df573d6000803e3d6000fd5b505050506000600360009054906101000a900473ffffffffffffffffffffffffffffffffffffffff1673ffffffffffffffffffffffffffffffffffffffff166370a08231306040518263ffffffff1660e01b8152600401610440919061079f565b60206040518083038186803b15801561045857600080fd5b505afa15801561046c573d6000803e3d6000fd5b505050506040513d601f19601f820116820180604052508101906104909190610685565b9050600360009054906101000a900473ffffffffffffffffffffffffffffffffffffffff1673ffffffffffffffffffffffffffffffffffffffff1663a9059cbb33836040518363ffffffff1660e01b81526004016104ef929190610873565b602060405180830381600087803b15801561050957600080fd5b505af115801561051d573d6000803e3d6000fd5b505050506040513d601f19601f82011682018060405250810190610541919061065c565b50600160009054906101000a900473ffffffffffffffffffffffffffffffffffffffff1673ffffffffffffffffffffffffffffffffffffffff1663c836fa0a33836040518363ffffffff1660e01b815260040161059f9291906107f1565b602060405180830381600087803b1580156105b957600080fd5b505af11580156105cd573d6000803e3d6000fd5b505050506040513d601f19601f820116820180604052508101906105f19190610685565b50505050565b600460009054906101000a900473ffffffffffffffffffffffffffffffffffffffff1681565b60008151905061062c81610a17565b92915050565b60008135905061064181610a2e565b92915050565b60008151905061065681610a2e565b92915050565b60006020828403121561066e57600080fd5b600061067c8482850161061d565b91505092915050565b60006020828403121561069757600080fd5b60006106a584828501610647565b91505092915050565b600080604083850312156106c157600080fd5b60006106cf85828601610632565b92505060206106e085828601610632565b9150509250929050565b6106f381610932565b82525050565b61070281610987565b82525050565b610711816109ab565b82525050565b610720816109cf565b82525050565b61072f816109f3565b82525050565b61073e81610a05565b82525050565b7f7355534400000000000000000000000000000000000000000000000000000000815250565b7f7354534c41000000000000000000000000000000000000000000000000000000815250565b6107998161097d565b82525050565b60006020820190506107b460008301846106ea565b92915050565b60006060820190506107cf60008301866106ea565b6107dc60208301856106ea565b6107e96040830184610790565b949350505050565b600060808201905061080660008301856106ea565b61081260208301610744565b61081f6040830184610790565b61082b6060830161076a565b9392505050565b600060808201905061084760008301856106ea565b6108536020830161076a565b6108606040830184610790565b61086c60608301610744565b9392505050565b600060408201905061088860008301856106ea565b6108956020830184610790565b9392505050565b60006020820190506108b160008301846106f9565b92915050565b60006020820190506108cc6000830184610708565b92915050565b60006020820190506108e76000830184610717565b92915050565b60006080820190506109026000830187610726565b61090f6020830186610735565b61091c6040830185610790565b6109296060830184610790565b95945050505050565b600061093d8261095d565b9050919050565b60008115159050919050565b600081600f0b9050919050565b600073ffffffffffffffffffffffffffffffffffffffff82169050919050565b6000819050919050565b600061099282610999565b9050919050565b60006109a48261095d565b9050919050565b60006109b6826109bd565b9050919050565b60006109c88261095d565b9050919050565b60006109da826109e1565b9050919050565b60006109ec8261095d565b9050919050565b60006109fe82610950565b9050919050565b6000610a1082610950565b9050919050565b610a2081610944565b8114610a2b57600080fd5b50565b610a378161097d565b8114610a4257600080fd5b5056fea2646970667358221220f92f02d222ea6e5a35597531f763960dadaa8ee12a5cf2df561546b1b2e2ee6e64736f6c63430008000033",
  "linkReferences": {},
  "deployedLinkReferences": {}
}